{
  "_format": "hh-sol-artifact-1",
  "contractName": "EscrowHub",
  "sourceName": "contracts/EscrowHub.sol",
  "abi": [
    {
      "inputs": [],
      "stateMutability": "nonpayable",
      "type": "constructor"
    },
    {
      "anonymous": false,
      "inputs": [
        {
          "indexed": false,
          "internalType": "address",
          "name": "previousAdmin",
          "type": "address"
        },
        {
          "indexed": false,
          "internalType": "address",
          "name": "newAdmin",
          "type": "address"
        }
      ],
      "name": "AdminChanged",
      "type": "event"
    },
    {
      "anonymous": false,
      "inputs": [
        {
          "indexed": true,
          "internalType": "address",
          "name": "beacon",
          "type": "address"
        }
      ],
      "name": "BeaconUpgraded",
      "type": "event"
    },
    {
      "anonymous": false,
      "inputs": [
        {
          "indexed": true,
          "internalType": "uint256",
          "name": "escrowId",
          "type": "uint256"
        },
        {
          "indexed": false,
          "internalType": "string",
          "name": "cid",
          "type": "string"
        },
        {
          "indexed": false,
          "internalType": "address",
          "name": "buyer",
          "type": "address"
        },
        {
          "indexed": false,
          "internalType": "address",
          "name": "seller",
          "type": "address"
        },
        {
          "indexed": true,
          "internalType": "uint256",
          "name": "amount",
          "type": "uint256"
        },
        {
          "indexed": true,
          "internalType": "uint256",
          "name": "fee",
          "type": "uint256"
        },
        {
          "indexed": false,
          "internalType": "enum EscrowHub.EscrowState",
          "name": "state",
          "type": "uint8"
        }
      ],
      "name": "EscrowCreated",
      "type": "event"
    },
    {
      "anonymous": false,
      "inputs": [
        {
          "indexed": true,
          "internalType": "uint256",
          "name": "escrowId",
          "type": "uint256"
        },
        {
          "indexed": false,
          "internalType": "string",
          "name": "cid",
          "type": "string"
        },
        {
          "indexed": false,
          "internalType": "address",
          "name": "buyer",
          "type": "address"
        },
        {
          "indexed": false,
          "internalType": "address",
          "name": "seller",
          "type": "address"
        },
        {
          "indexed": false,
          "internalType": "uint256",
          "name": "amount",
          "type": "uint256"
        },
        {
          "indexed": false,
          "internalType": "uint256",
          "name": "fee",
          "type": "uint256"
        },
        {
          "indexed": true,
          "internalType": "enum EscrowHub.EscrowState",
          "name": "state",
          "type": "uint8"
        }
      ],
      "name": "EscrowUpdated",
      "type": "event"
    },
    {
      "anonymous": false,
      "inputs": [
        {
          "indexed": false,
          "internalType": "uint8",
          "name": "version",
          "type": "uint8"
        }
      ],
      "name": "Initialized",
      "type": "event"
    },
    {
      "anonymous": false,
      "inputs": [
        {
          "indexed": true,
          "internalType": "address",
          "name": "previousOwner",
          "type": "address"
        },
        {
          "indexed": true,
          "internalType": "address",
          "name": "newOwner",
          "type": "address"
        }
      ],
      "name": "OwnershipTransferred",
      "type": "event"
    },
    {
      "anonymous": false,
      "inputs": [
        {
          "indexed": true,
          "internalType": "address",
          "name": "implementation",
          "type": "address"
        }
      ],
      "name": "Upgraded",
      "type": "event"
    },
    {
      "inputs": [
        {
          "internalType": "uint256",
          "name": "_escrowId",
          "type": "uint256"
        }
      ],
      "name": "claimAfterExpire",
      "outputs": [],
      "stateMutability": "nonpayable",
      "type": "function"
    },
    {
      "inputs": [
        {
          "internalType": "uint256",
          "name": "_escrowId",
          "type": "uint256"
        }
      ],
      "name": "deliver",
      "outputs": [],
      "stateMutability": "nonpayable",
      "type": "function"
    },
    {
      "inputs": [
        {
          "internalType": "uint256",
          "name": "escrowId",
          "type": "uint256"
        }
      ],
      "name": "fetchEscrow",
      "outputs": [
        {
          "components": [
            {
              "internalType": "uint256",
              "name": "id",
              "type": "uint256"
            },
            {
              "internalType": "string",
              "name": "cid",
              "type": "string"
            },
            {
              "internalType": "address payable",
              "name": "buyer",
              "type": "address"
            },
            {
              "internalType": "address payable",
              "name": "seller",
              "type": "address"
            },
            {
              "internalType": "uint256",
              "name": "amount",
              "type": "uint256"
            },
            {
              "internalType": "uint256",
              "name": "fee",
              "type": "uint256"
            },
            {
              "internalType": "uint256",
              "name": "createdAt",
              "type": "uint256"
            },
            {
              "internalType": "uint256",
              "name": "expireAt",
              "type": "uint256"
            },
            {
              "internalType": "uint256",
              "name": "clearAt",
              "type": "uint256"
            },
            {
              "internalType": "enum EscrowHub.EscrowState",
              "name": "state",
              "type": "uint8"
            }
          ],
          "internalType": "struct EscrowHub.Escrow",
          "name": "",
          "type": "tuple"
        }
      ],
      "stateMutability": "view",
      "type": "function"
    },
    {
      "inputs": [
        {
          "internalType": "uint256",
          "name": "cursor",
          "type": "uint256"
        },
        {
          "internalType": "uint256",
          "name": "perPageCount",
          "type": "uint256"
        }
      ],
      "name": "fetchEscrowsPaginated",
      "outputs": [
        {
          "components": [
            {
              "internalType": "uint256",
              "name": "id",
              "type": "uint256"
            },
            {
              "internalType": "string",
              "name": "cid",
              "type": "string"
            },
            {
              "internalType": "address payable",
              "name": "buyer",
              "type": "address"
            },
            {
              "internalType": "address payable",
              "name": "seller",
              "type": "address"
            },
            {
              "internalType": "uint256",
              "name": "amount",
              "type": "uint256"
            },
            {
              "internalType": "uint256",
              "name": "fee",
              "type": "uint256"
            },
            {
              "internalType": "uint256",
              "name": "createdAt",
              "type": "uint256"
            },
            {
              "internalType": "uint256",
              "name": "expireAt",
              "type": "uint256"
            },
            {
              "internalType": "uint256",
              "name": "clearAt",
              "type": "uint256"
            },
            {
              "internalType": "enum EscrowHub.EscrowState",
              "name": "state",
              "type": "uint8"
            }
          ],
          "internalType": "struct EscrowHub.Escrow[]",
          "name": "data",
          "type": "tuple[]"
        },
        {
          "internalType": "uint256",
          "name": "totalItemCount",
          "type": "uint256"
        },
        {
          "internalType": "bool",
          "name": "hasNextPage",
          "type": "bool"
        },
        {
          "internalType": "uint256",
          "name": "nextCursor",
          "type": "uint256"
        }
      ],
      "stateMutability": "view",
      "type": "function"
    },
    {
      "inputs": [],
      "name": "fetchMyEscrows",
      "outputs": [
        {
          "components": [
            {
              "internalType": "uint256",
              "name": "id",
              "type": "uint256"
            },
            {
              "internalType": "string",
              "name": "cid",
              "type": "string"
            },
            {
              "internalType": "address payable",
              "name": "buyer",
              "type": "address"
            },
            {
              "internalType": "address payable",
              "name": "seller",
              "type": "address"
            },
            {
              "internalType": "uint256",
              "name": "amount",
              "type": "uint256"
            },
            {
              "internalType": "uint256",
              "name": "fee",
              "type": "uint256"
            },
            {
              "internalType": "uint256",
              "name": "createdAt",
              "type": "uint256"
            },
            {
              "internalType": "uint256",
              "name": "expireAt",
              "type": "uint256"
            },
            {
              "internalType": "uint256",
              "name": "clearAt",
              "type": "uint256"
            },
            {
              "internalType": "enum EscrowHub.EscrowState",
              "name": "state",
              "type": "uint8"
            }
          ],
          "internalType": "struct EscrowHub.Escrow[]",
          "name": "",
          "type": "tuple[]"
        }
      ],
      "stateMutability": "view",
      "type": "function"
    },
    {
      "inputs": [],
      "name": "initialize",
      "outputs": [],
      "stateMutability": "nonpayable",
      "type": "function"
    },
    {
      "inputs": [
        {
          "internalType": "address",
          "name": "_seller",
          "type": "address"
        },
        {
          "internalType": "string",
          "name": "_cid",
          "type": "string"
        },
        {
          "internalType": "uint256",
          "name": "expireIn",
          "type": "uint256"
        }
      ],
      "name": "newEscrow",
      "outputs": [],
      "stateMutability": "payable",
      "type": "function"
    },
    {
      "inputs": [],
      "name": "owner",
      "outputs": [
        {
          "internalType": "address",
          "name": "",
          "type": "address"
        }
      ],
      "stateMutability": "view",
      "type": "function"
    },
    {
      "inputs": [],
      "name": "proxiableUUID",
      "outputs": [
        {
          "internalType": "bytes32",
          "name": "",
          "type": "bytes32"
        }
      ],
      "stateMutability": "view",
      "type": "function"
    },
    {
      "inputs": [
        {
          "internalType": "uint256",
          "name": "_escrowId",
          "type": "uint256"
        }
      ],
      "name": "refund",
      "outputs": [],
      "stateMutability": "nonpayable",
      "type": "function"
    },
    {
      "inputs": [],
      "name": "renounceOwnership",
      "outputs": [],
      "stateMutability": "nonpayable",
      "type": "function"
    },
    {
      "inputs": [
        {
          "internalType": "address",
          "name": "newOwner",
          "type": "address"
        }
      ],
      "name": "transferOwnership",
      "outputs": [],
      "stateMutability": "nonpayable",
      "type": "function"
    },
    {
      "inputs": [
        {
          "internalType": "address",
          "name": "newImplementation",
          "type": "address"
        }
      ],
      "name": "upgradeTo",
      "outputs": [],
      "stateMutability": "nonpayable",
      "type": "function"
    },
    {
      "inputs": [
        {
          "internalType": "address",
          "name": "newImplementation",
          "type": "address"
        },
        {
          "internalType": "bytes",
          "name": "data",
          "type": "bytes"
        }
      ],
      "name": "upgradeToAndCall",
      "outputs": [],
      "stateMutability": "payable",
      "type": "function"
    }
  ],
  "bytecode": "0x60a06040523073ffffffffffffffffffffffffffffffffffffffff1660809073ffffffffffffffffffffffffffffffffffffffff1660601b8152503480156200004757600080fd5b50620000586200005e60201b60201c565b62000209565b600060019054906101000a900460ff1615620000b1576040517f08c379a0000000000000000000000000000000000000000000000000000000008152600401620000a8906200015d565b60405180910390fd5b60ff801660008054906101000a900460ff1660ff161015620001235760ff6000806101000a81548160ff021916908360ff1602179055507f7f26b83ff96e1f2b6a682f133852f6798a09c465da95921460cefb384740249860ff6040516200011a91906200017f565b60405180910390a15b565b6000620001346027836200019c565b91506200014182620001ba565b604082019050919050565b6200015781620001ad565b82525050565b60006020820190508181036000830152620001788162000125565b9050919050565b60006020820190506200019660008301846200014c565b92915050565b600082825260208201905092915050565b600060ff82169050919050565b7f496e697469616c697a61626c653a20636f6e747261637420697320696e69746960008201527f616c697a696e6700000000000000000000000000000000000000000000000000602082015250565b60805160601c614fa56200024460003960008181610ec501528181610f54015281816114e60152818161157501526116250152614fa56000f3fe6080604052600436106100dd5760003560e01c8063715018a61161007f5780639b0731af116100595780639b0731af14610244578063d0f81cbf1461026d578063ede6d084146102aa578063f2fde38b146102ea576100dd565b8063715018a6146101eb5780638129fc1c146102025780638da5cb5b14610219576100dd565b80633bd5d173116100bb5780633bd5d1731461015f5780634f1ef2861461018857806352d1902d146101a45780636fbac0fa146101cf576100dd565b8063261582b9146100e2578063278ecde11461010d5780633659cfe614610136575b600080fd5b3480156100ee57600080fd5b506100f7610313565b604051610104919061407e565b60405180910390f35b34801561011957600080fd5b50610134600480360381019061012f9190613935565b610a58565b005b34801561014257600080fd5b5061015d60048036038101906101589190613828565b610ec3565b005b34801561016b57600080fd5b5061018660048036038101906101819190613935565b611072565b005b6101a2600480360381019061019d9190613851565b6114e4565b005b3480156101b057600080fd5b506101b9611621565b6040516101c691906140ec565b60405180910390f35b6101e960048036038101906101e491906138a5565b6116da565b005b3480156101f757600080fd5b50610200611c4e565b005b34801561020e57600080fd5b50610217611c62565b005b34801561022557600080fd5b5061022e611db0565b60405161023b9190614063565b60405180910390f35b34801561025057600080fd5b5061026b60048036038101906102669190613935565b611dda565b005b34801561027957600080fd5b50610294600480360381019061028f9190613935565b6122a5565b6040516102a1919061446a565b60405180910390f35b3480156102b657600080fd5b506102d160048036038101906102cc919061395e565b6124d4565b6040516102e194939291906140a0565b60405180910390f35b3480156102f657600080fd5b50610311600480360381019061030c9190613828565b612d7a565b005b60603373ffffffffffffffffffffffffffffffffffffffff16610334611db0565b73ffffffffffffffffffffffffffffffffffffffff16141561067557600061035c60fb612dfe565b905060008167ffffffffffffffff8111156103a0577f4e487b7100000000000000000000000000000000000000000000000000000000600052604160045260246000fd5b6040519080825280602002602001820160405280156103d957816020015b6103c66135bf565b8152602001906001900390816103be5790505b50905060005b8281101561066a5760fc60006001836103f891906145a4565b8152602001908152602001600020604051806101400160405290816000820154815260200160018201805461042c906147d9565b80601f0160208091040260200160405190810160405280929190818152602001828054610458906147d9565b80156104a55780601f1061047a576101008083540402835291602001916104a5565b820191906000526020600020905b81548152906001019060200180831161048857829003601f168201915b505050505081526020016002820160009054906101000a900473ffffffffffffffffffffffffffffffffffffffff1673ffffffffffffffffffffffffffffffffffffffff1673ffffffffffffffffffffffffffffffffffffffff1681526020016003820160009054906101000a900473ffffffffffffffffffffffffffffffffffffffff1673ffffffffffffffffffffffffffffffffffffffff1673ffffffffffffffffffffffffffffffffffffffff16815260200160048201548152602001600582015481526020016006820154815260200160078201548152602001600882015481526020016009820160009054906101000a900460ff1660038111156105d7577f4e487b7100000000000000000000000000000000000000000000000000000000600052602160045260246000fd5b600381111561060f577f4e487b7100000000000000000000000000000000000000000000000000000000600052602160045260246000fd5b8152505082828151811061064c577f4e487b7100000000000000000000000000000000000000000000000000000000600052603260045260246000fd5b602002602001018190525080806106629061483c565b9150506103df565b508092505050610a55565b600060fd60003373ffffffffffffffffffffffffffffffffffffffff1673ffffffffffffffffffffffffffffffffffffffff1681526020019081526020016000205467ffffffffffffffff8111156106f6577f4e487b7100000000000000000000000000000000000000000000000000000000600052604160045260246000fd5b60405190808252806020026020018201604052801561072f57816020015b61071c6135bf565b8152602001906001900390816107145790505b50905060005b60fd60003373ffffffffffffffffffffffffffffffffffffffff1673ffffffffffffffffffffffffffffffffffffffff16815260200190815260200160002054811015610a4f5760fc600060fe60003373ffffffffffffffffffffffffffffffffffffffff1673ffffffffffffffffffffffffffffffffffffffff16815260200190815260200160002060006001856107ce91906145a4565b81526020019081526020016000205481526020019081526020016000206040518061014001604052908160008201548152602001600182018054610811906147d9565b80601f016020809104026020016040519081016040528092919081815260200182805461083d906147d9565b801561088a5780601f1061085f5761010080835404028352916020019161088a565b820191906000526020600020905b81548152906001019060200180831161086d57829003601f168201915b505050505081526020016002820160009054906101000a900473ffffffffffffffffffffffffffffffffffffffff1673ffffffffffffffffffffffffffffffffffffffff1673ffffffffffffffffffffffffffffffffffffffff1681526020016003820160009054906101000a900473ffffffffffffffffffffffffffffffffffffffff1673ffffffffffffffffffffffffffffffffffffffff1673ffffffffffffffffffffffffffffffffffffffff16815260200160048201548152602001600582015481526020016006820154815260200160078201548152602001600882015481526020016009820160009054906101000a900460ff1660038111156109bc577f4e487b7100000000000000000000000000000000000000000000000000000000600052602160045260246000fd5b60038111156109f4577f4e487b7100000000000000000000000000000000000000000000000000000000600052602160045260246000fd5b81525050828281518110610a31577f4e487b7100000000000000000000000000000000000000000000000000000000600052603260045260246000fd5b60200260200101819052508080610a479061483c565b915050610735565b50809150505b90565b803373ffffffffffffffffffffffffffffffffffffffff1660fc600083815260200190815260200160002060030160009054906101000a900473ffffffffffffffffffffffffffffffffffffffff1673ffffffffffffffffffffffffffffffffffffffff161480610afb57503373ffffffffffffffffffffffffffffffffffffffff16610ae3611db0565b73ffffffffffffffffffffffffffffffffffffffff16145b610b3a576040517f08c379a0000000000000000000000000000000000000000000000000000000008152600401610b319061424a565b60405180910390fd5b60026001541415610b80576040517f08c379a0000000000000000000000000000000000000000000000000000000008152600401610b779061444a565b60405180910390fd5b600260018190555060006003811115610bc2577f4e487b7100000000000000000000000000000000000000000000000000000000600052602160045260246000fd5b60fc600084815260200190815260200160002060090160009054906101000a900460ff166003811115610c1e577f4e487b7100000000000000000000000000000000000000000000000000000000600052602160045260246000fd5b14610c5e576040517f08c379a0000000000000000000000000000000000000000000000000000000008152600401610c559061426a565b60405180910390fd5b60fc600083815260200190815260200160002060020160009054906101000a900473ffffffffffffffffffffffffffffffffffffffff1673ffffffffffffffffffffffffffffffffffffffff166108fc60fc60008581526020019081526020016000206005015460fc600086815260200190815260200160002060040154610ce691906145a4565b9081150290604051600060405180830381858888f19350505050158015610d11573d6000803e3d6000fd5b504260fc600084815260200190815260200160002060080181905550600360fc600084815260200190815260200160002060090160006101000a81548160ff02191690836003811115610d8d577f4e487b7100000000000000000000000000000000000000000000000000000000600052602160045260246000fd5b0217905550600380811115610dcb577f4e487b7100000000000000000000000000000000000000000000000000000000600052602160045260246000fd5b827facfcb6d1fa91c83112102ce242b5502826bbc1a8114bc5030f4b4bd844dc3e6760fc600086815260200190815260200160002060010160fc600087815260200190815260200160002060020160009054906101000a900473ffffffffffffffffffffffffffffffffffffffff1660fc600088815260200190815260200160002060030160009054906101000a900473ffffffffffffffffffffffffffffffffffffffff1660fc60008981526020019081526020016000206004015460fc60008a815260200190815260200160002060050154604051610eb0959493929190614190565b60405180910390a3600180819055505050565b7f000000000000000000000000000000000000000000000000000000000000000073ffffffffffffffffffffffffffffffffffffffff163073ffffffffffffffffffffffffffffffffffffffff161415610f52576040517f08c379a0000000000000000000000000000000000000000000000000000000008152600401610f499061420a565b60405180910390fd5b7f000000000000000000000000000000000000000000000000000000000000000073ffffffffffffffffffffffffffffffffffffffff16610f91612e0c565b73ffffffffffffffffffffffffffffffffffffffff1614610fe7576040517f08c379a0000000000000000000000000000000000000000000000000000000008152600401610fde9061422a565b60405180910390fd5b610ff081612e63565b61106f81600067ffffffffffffffff811115611035577f4e487b7100000000000000000000000000000000000000000000000000000000600052604160045260246000fd5b6040519080825280601f01601f1916602001820160405280156110675781602001600182028036833780820191505090505b506000612e6e565b50565b803373ffffffffffffffffffffffffffffffffffffffff1660fc600083815260200190815260200160002060020160009054906101000a900473ffffffffffffffffffffffffffffffffffffffff1673ffffffffffffffffffffffffffffffffffffffff1614611117576040517f08c379a000000000000000000000000000000000000000000000000000000000815260040161110e9061428a565b60405180910390fd5b6002600154141561115d576040517f08c379a00000000000000000000000000000000000000000000000000000000081526004016111549061444a565b60405180910390fd5b60026001819055506000600381111561119f577f4e487b7100000000000000000000000000000000000000000000000000000000600052602160045260246000fd5b60fc600084815260200190815260200160002060090160009054906101000a900460ff1660038111156111fb577f4e487b7100000000000000000000000000000000000000000000000000000000600052602160045260246000fd5b1461123b576040517f08c379a00000000000000000000000000000000000000000000000000000000081526004016112329061436a565b60405180910390fd5b60fc600083815260200190815260200160002060030160009054906101000a900473ffffffffffffffffffffffffffffffffffffffff1673ffffffffffffffffffffffffffffffffffffffff166108fc60fc6000858152602001908152602001600020600401549081150290604051600060405180830381858888f193505050501580156112cd573d6000803e3d6000fd5b506112d6611db0565b73ffffffffffffffffffffffffffffffffffffffff166108fc60fc6000858152602001908152602001600020600501549081150290604051600060405180830381858888f19350505050158015611331573d6000803e3d6000fd5b504260fc600084815260200190815260200160002060080181905550600160fc600084815260200190815260200160002060090160006101000a81548160ff021916908360038111156113ad577f4e487b7100000000000000000000000000000000000000000000000000000000600052602160045260246000fd5b0217905550600160038111156113ec577f4e487b7100000000000000000000000000000000000000000000000000000000600052602160045260246000fd5b827facfcb6d1fa91c83112102ce242b5502826bbc1a8114bc5030f4b4bd844dc3e6760fc600086815260200190815260200160002060010160fc600087815260200190815260200160002060020160009054906101000a900473ffffffffffffffffffffffffffffffffffffffff1660fc600088815260200190815260200160002060030160009054906101000a900473ffffffffffffffffffffffffffffffffffffffff1660fc60008981526020019081526020016000206004015460fc60008a8152602001908152602001600020600501546040516114d1959493929190614190565b60405180910390a3600180819055505050565b7f000000000000000000000000000000000000000000000000000000000000000073ffffffffffffffffffffffffffffffffffffffff163073ffffffffffffffffffffffffffffffffffffffff161415611573576040517f08c379a000000000000000000000000000000000000000000000000000000000815260040161156a9061420a565b60405180910390fd5b7f000000000000000000000000000000000000000000000000000000000000000073ffffffffffffffffffffffffffffffffffffffff166115b2612e0c565b73ffffffffffffffffffffffffffffffffffffffff1614611608576040517f08c379a00000000000000000000000000000000000000000000000000000000081526004016115ff9061422a565b60405180910390fd5b61161182612e63565b61161d82826001612e6e565b5050565b60007f000000000000000000000000000000000000000000000000000000000000000073ffffffffffffffffffffffffffffffffffffffff163073ffffffffffffffffffffffffffffffffffffffff16146116b1576040517f08c379a00000000000000000000000000000000000000000000000000000000081526004016116a8906142aa565b60405180910390fd5b7f360894a13ba1a3210667c828492db98dca3e2076cc3735a920a3ca505d382bbc60001b905090565b60026001541415611720576040517f08c379a00000000000000000000000000000000000000000000000000000000081526004016117179061444a565b60405180910390fd5b600260018190555061173260fb612feb565b600061173e60fb612dfe565b90506611c37937e0800034101561178a576040517f08c379a0000000000000000000000000000000000000000000000000000000008152600401611781906143ca565b60405180910390fd5b6000606460033461179b919061462b565b6117a591906145fa565b9050600081346117b59190614685565b90506040518061014001604052808481526020018681526020013373ffffffffffffffffffffffffffffffffffffffff1681526020018773ffffffffffffffffffffffffffffffffffffffff1681526020018281526020018381526020014281526020018581526020016000815260200160006003811115611860577f4e487b7100000000000000000000000000000000000000000000000000000000600052602160045260246000fd5b81525060fc600085815260200190815260200160002060008201518160000155602082015181600101908051906020019061189c929190613676565b5060408201518160020160006101000a81548173ffffffffffffffffffffffffffffffffffffffff021916908373ffffffffffffffffffffffffffffffffffffffff16021790555060608201518160030160006101000a81548173ffffffffffffffffffffffffffffffffffffffff021916908373ffffffffffffffffffffffffffffffffffffffff1602179055506080820151816004015560a0820151816005015560c0820151816006015560e0820151816007015561010082015181600801556101208201518160090160006101000a81548160ff021916908360038111156119b0577f4e487b7100000000000000000000000000000000000000000000000000000000600052602160045260246000fd5b0217905550905050600160fd60003373ffffffffffffffffffffffffffffffffffffffff1673ffffffffffffffffffffffffffffffffffffffff16815260200190815260200160002054611a0491906145a4565b60fd60003373ffffffffffffffffffffffffffffffffffffffff1673ffffffffffffffffffffffffffffffffffffffff168152602001908152602001600020819055508260fe60003373ffffffffffffffffffffffffffffffffffffffff1673ffffffffffffffffffffffffffffffffffffffff168152602001908152602001600020600060fd60003373ffffffffffffffffffffffffffffffffffffffff1673ffffffffffffffffffffffffffffffffffffffff16815260200190815260200160002054815260200190815260200160002081905550600160fd60008873ffffffffffffffffffffffffffffffffffffffff1673ffffffffffffffffffffffffffffffffffffffff16815260200190815260200160002054611b2791906145a4565b60fd60008873ffffffffffffffffffffffffffffffffffffffff1673ffffffffffffffffffffffffffffffffffffffff168152602001908152602001600020819055508260fe60008873ffffffffffffffffffffffffffffffffffffffff1673ffffffffffffffffffffffffffffffffffffffff168152602001908152602001600020600060fd60008a73ffffffffffffffffffffffffffffffffffffffff1673ffffffffffffffffffffffffffffffffffffffff168152602001908152602001600020548152602001908152602001600020819055508181847fb9e71d1f685b313accb4809b03f62dc9601718815d3758ed626f3802e7f005b188338b6000604051611c379493929190614144565b60405180910390a450505060018081905550505050565b611c56613001565b611c60600061307f565b565b60008060019054906101000a900460ff16159050808015611c935750600160008054906101000a900460ff1660ff16105b80611cc05750611ca230613145565b158015611cbf5750600160008054906101000a900460ff1660ff16145b5b611cff576040517f08c379a0000000000000000000000000000000000000000000000000000000008152600401611cf6906142ea565b60405180910390fd5b60016000806101000a81548160ff021916908360ff1602179055508015611d3c576001600060016101000a81548160ff0219169083151502179055505b611d44613168565b611d4c6131c1565b611d5461321a565b8015611dad5760008060016101000a81548160ff0219169083151502179055507f7f26b83ff96e1f2b6a682f133852f6798a09c465da95921460cefb38474024986001604051611da49190614107565b60405180910390a15b50565b6000606560009054906101000a900473ffffffffffffffffffffffffffffffffffffffff16905090565b803373ffffffffffffffffffffffffffffffffffffffff1660fc600083815260200190815260200160002060030160009054906101000a900473ffffffffffffffffffffffffffffffffffffffff1673ffffffffffffffffffffffffffffffffffffffff1614611e7f576040517f08c379a0000000000000000000000000000000000000000000000000000000008152600401611e769061440a565b60405180910390fd5b60026001541415611ec5576040517f08c379a0000000000000000000000000000000000000000000000000000000008152600401611ebc9061444a565b60405180910390fd5b60026001819055504260fc6000848152602001908152602001600020600701541115611f26576040517f08c379a0000000000000000000000000000000000000000000000000000000008152600401611f1d9061432a565b60405180910390fd5b60006003811115611f60577f4e487b7100000000000000000000000000000000000000000000000000000000600052602160045260246000fd5b60fc600084815260200190815260200160002060090160009054906101000a900460ff166003811115611fbc577f4e487b7100000000000000000000000000000000000000000000000000000000600052602160045260246000fd5b14611ffc576040517f08c379a0000000000000000000000000000000000000000000000000000000008152600401611ff3906143aa565b60405180910390fd5b60fc600083815260200190815260200160002060030160009054906101000a900473ffffffffffffffffffffffffffffffffffffffff1673ffffffffffffffffffffffffffffffffffffffff166108fc60fc6000858152602001908152602001600020600401549081150290604051600060405180830381858888f1935050505015801561208e573d6000803e3d6000fd5b50612097611db0565b73ffffffffffffffffffffffffffffffffffffffff166108fc60fc6000858152602001908152602001600020600501549081150290604051600060405180830381858888f193505050501580156120f2573d6000803e3d6000fd5b504260fc600084815260200190815260200160002060080181905550600260fc600084815260200190815260200160002060090160006101000a81548160ff0219169083600381111561216e577f4e487b7100000000000000000000000000000000000000000000000000000000600052602160045260246000fd5b0217905550600260038111156121ad577f4e487b7100000000000000000000000000000000000000000000000000000000600052602160045260246000fd5b827facfcb6d1fa91c83112102ce242b5502826bbc1a8114bc5030f4b4bd844dc3e6760fc600086815260200190815260200160002060010160fc600087815260200190815260200160002060020160009054906101000a900473ffffffffffffffffffffffffffffffffffffffff1660fc600088815260200190815260200160002060030160009054906101000a900473ffffffffffffffffffffffffffffffffffffffff1660fc60008981526020019081526020016000206004015460fc60008a815260200190815260200160002060050154604051612292959493929190614190565b60405180910390a3600180819055505050565b6122ad6135bf565b60fc600083815260200190815260200160002060405180610140016040529081600082015481526020016001820180546122e6906147d9565b80601f0160208091040260200160405190810160405280929190818152602001828054612312906147d9565b801561235f5780601f106123345761010080835404028352916020019161235f565b820191906000526020600020905b81548152906001019060200180831161234257829003601f168201915b505050505081526020016002820160009054906101000a900473ffffffffffffffffffffffffffffffffffffffff1673ffffffffffffffffffffffffffffffffffffffff1673ffffffffffffffffffffffffffffffffffffffff1681526020016003820160009054906101000a900473ffffffffffffffffffffffffffffffffffffffff1673ffffffffffffffffffffffffffffffffffffffff1673ffffffffffffffffffffffffffffffffffffffff16815260200160048201548152602001600582015481526020016006820154815260200160078201548152602001600882015481526020016009820160009054906101000a900460ff166003811115612491577f4e487b7100000000000000000000000000000000000000000000000000000000600052602160045260246000fd5b60038111156124c9577f4e487b7100000000000000000000000000000000000000000000000000000000600052602160045260246000fd5b815250509050919050565b60606000806000808590503373ffffffffffffffffffffffffffffffffffffffff166124fe611db0565b73ffffffffffffffffffffffffffffffffffffffff1614156128a957600061252660fb612dfe565b9050600060019050888261253a9190614685565b83111561255857888261254d9190614685565b925060009050612571565b88826125649190614685565b83141561257057600090505b5b60008367ffffffffffffffff8111156125b3577f4e487b7100000000000000000000000000000000000000000000000000000000600052604160045260246000fd5b6040519080825280602002602001820160405280156125ec57816020015b6125d96135bf565b8152602001906001900390816125d15790505b50905060005b848110156128885760fc60006001838e61260c91906145a4565b61261691906145a4565b8152602001908152602001600020604051806101400160405290816000820154815260200160018201805461264a906147d9565b80601f0160208091040260200160405190810160405280929190818152602001828054612676906147d9565b80156126c35780601f10612698576101008083540402835291602001916126c3565b820191906000526020600020905b8154815290600101906020018083116126a657829003601f168201915b505050505081526020016002820160009054906101000a900473ffffffffffffffffffffffffffffffffffffffff1673ffffffffffffffffffffffffffffffffffffffff1673ffffffffffffffffffffffffffffffffffffffff1681526020016003820160009054906101000a900473ffffffffffffffffffffffffffffffffffffffff1673ffffffffffffffffffffffffffffffffffffffff1673ffffffffffffffffffffffffffffffffffffffff16815260200160048201548152602001600582015481526020016006820154815260200160078201548152602001600882015481526020016009820160009054906101000a900460ff1660038111156127f5577f4e487b7100000000000000000000000000000000000000000000000000000000600052602160045260246000fd5b600381111561282d577f4e487b7100000000000000000000000000000000000000000000000000000000600052602160045260246000fd5b8152505082828151811061286a577f4e487b7100000000000000000000000000000000000000000000000000000000600052603260045260246000fd5b602002602001018190525080806128809061483c565b9150506125f2565b50808383868d61289891906145a4565b975097509750975050505050612d71565b6000600190508760fd60003373ffffffffffffffffffffffffffffffffffffffff1673ffffffffffffffffffffffffffffffffffffffff168152602001908152602001600020546128fa9190614685565b821115612957578760fd60003373ffffffffffffffffffffffffffffffffffffffff1673ffffffffffffffffffffffffffffffffffffffff1681526020019081526020016000205461294c9190614685565b9150600090506129af565b8760fd60003373ffffffffffffffffffffffffffffffffffffffff1673ffffffffffffffffffffffffffffffffffffffff168152602001908152602001600020546129a29190614685565b8214156129ae57600090505b5b60008267ffffffffffffffff8111156129f1577f4e487b7100000000000000000000000000000000000000000000000000000000600052604160045260246000fd5b604051908082528060200260200182016040528015612a2a57816020015b612a176135bf565b815260200190600190039081612a0f5790505b50905060005b83811015612d165760fc600060fe60003373ffffffffffffffffffffffffffffffffffffffff1673ffffffffffffffffffffffffffffffffffffffff16815260200190815260200160002060006001858f612a8b91906145a4565b612a9591906145a4565b81526020019081526020016000205481526020019081526020016000206040518061014001604052908160008201548152602001600182018054612ad8906147d9565b80601f0160208091040260200160405190810160405280929190818152602001828054612b04906147d9565b8015612b515780601f10612b2657610100808354040283529160200191612b51565b820191906000526020600020905b815481529060010190602001808311612b3457829003601f168201915b505050505081526020016002820160009054906101000a900473ffffffffffffffffffffffffffffffffffffffff1673ffffffffffffffffffffffffffffffffffffffff1673ffffffffffffffffffffffffffffffffffffffff1681526020016003820160009054906101000a900473ffffffffffffffffffffffffffffffffffffffff1673ffffffffffffffffffffffffffffffffffffffff1673ffffffffffffffffffffffffffffffffffffffff16815260200160048201548152602001600582015481526020016006820154815260200160078201548152602001600882015481526020016009820160009054906101000a900460ff166003811115612c83577f4e487b7100000000000000000000000000000000000000000000000000000000600052602160045260246000fd5b6003811115612cbb577f4e487b7100000000000000000000000000000000000000000000000000000000600052602160045260246000fd5b81525050828281518110612cf8577f4e487b7100000000000000000000000000000000000000000000000000000000600052603260045260246000fd5b60200260200101819052508080612d0e9061483c565b915050612a30565b508060fd60003373ffffffffffffffffffffffffffffffffffffffff1673ffffffffffffffffffffffffffffffffffffffff1681526020019081526020016000205483858c612d6591906145a4565b96509650965096505050505b92959194509250565b612d82613001565b600073ffffffffffffffffffffffffffffffffffffffff168173ffffffffffffffffffffffffffffffffffffffff161415612df2576040517f08c379a0000000000000000000000000000000000000000000000000000000008152600401612de9906141ea565b60405180910390fd5b612dfb8161307f565b50565b600081600001549050919050565b6000612e3a7f360894a13ba1a3210667c828492db98dca3e2076cc3735a920a3ca505d382bbc60001b61326b565b60000160009054906101000a900473ffffffffffffffffffffffffffffffffffffffff16905090565b612e6b613001565b50565b612e9a7f4910fdfa16fed3260ed0e7147f7cc6da11a60208b5b9406d12a635614ffd914360001b613275565b60000160009054906101000a900460ff1615612ebe57612eb98361327f565b612fe6565b8273ffffffffffffffffffffffffffffffffffffffff166352d1902d6040518163ffffffff1660e01b815260040160206040518083038186803b158015612f0457600080fd5b505afa925050508015612f3557506040513d601f19601f82011682018060405250810190612f32919061390c565b60015b612f74576040517f08c379a0000000000000000000000000000000000000000000000000000000008152600401612f6b9061430a565b60405180910390fd5b7f360894a13ba1a3210667c828492db98dca3e2076cc3735a920a3ca505d382bbc60001b8114612fd9576040517f08c379a0000000000000000000000000000000000000000000000000000000008152600401612fd0906142ca565b60405180910390fd5b50612fe5838383613338565b5b505050565b6001816000016000828254019250508190555050565b613009613364565b73ffffffffffffffffffffffffffffffffffffffff16613027611db0565b73ffffffffffffffffffffffffffffffffffffffff161461307d576040517f08c379a00000000000000000000000000000000000000000000000000000000081526004016130749061438a565b60405180910390fd5b565b6000606560009054906101000a900473ffffffffffffffffffffffffffffffffffffffff16905081606560006101000a81548173ffffffffffffffffffffffffffffffffffffffff021916908373ffffffffffffffffffffffffffffffffffffffff1602179055508173ffffffffffffffffffffffffffffffffffffffff168173ffffffffffffffffffffffffffffffffffffffff167f8be0079c531659141344cd1fd0a4f28419497f9722a3daafe3b4186f6b6457e060405160405180910390a35050565b6000808273ffffffffffffffffffffffffffffffffffffffff163b119050919050565b600060019054906101000a900460ff166131b7576040517f08c379a00000000000000000000000000000000000000000000000000000000081526004016131ae9061442a565b60405180910390fd5b6131bf61336c565b565b600060019054906101000a900460ff16613210576040517f08c379a00000000000000000000000000000000000000000000000000000000081526004016132079061442a565b60405180910390fd5b6132186133c4565b565b600060019054906101000a900460ff16613269576040517f08c379a00000000000000000000000000000000000000000000000000000000081526004016132609061442a565b60405180910390fd5b565b6000819050919050565b6000819050919050565b61328881613145565b6132c7576040517f08c379a00000000000000000000000000000000000000000000000000000000081526004016132be9061434a565b60405180910390fd5b806132f47f360894a13ba1a3210667c828492db98dca3e2076cc3735a920a3ca505d382bbc60001b61326b565b60000160006101000a81548173ffffffffffffffffffffffffffffffffffffffff021916908373ffffffffffffffffffffffffffffffffffffffff16021790555050565b61334183613425565b60008251118061334e5750805b1561335f5761335d8383613474565b505b505050565b600033905090565b600060019054906101000a900460ff166133bb576040517f08c379a00000000000000000000000000000000000000000000000000000000081526004016133b29061442a565b60405180910390fd5b60018081905550565b600060019054906101000a900460ff16613413576040517f08c379a000000000000000000000000000000000000000000000000000000000815260040161340a9061442a565b60405180910390fd5b61342361341e613364565b61307f565b565b61342e8161327f565b8073ffffffffffffffffffffffffffffffffffffffff167fbc7cd75a20ee27fd9adebab32041f755214dbc6bffa90cc0225b39da2e5c2d3b60405160405180910390a250565b606061347f83613145565b6134be576040517f08c379a00000000000000000000000000000000000000000000000000000000081526004016134b5906143ea565b60405180910390fd5b6000808473ffffffffffffffffffffffffffffffffffffffff16846040516134e6919061404c565b600060405180830381855af49150503d8060008114613521576040519150601f19603f3d011682016040523d82523d6000602084013e613526565b606091505b509150915061354e8282604051806060016040528060278152602001614f4960279139613558565b9250505092915050565b60608315613568578290506135b8565b60008351111561357b5782518084602001fd5b816040517f08c379a00000000000000000000000000000000000000000000000000000000081526004016135af9190614122565b60405180910390fd5b9392505050565b6040518061014001604052806000815260200160608152602001600073ffffffffffffffffffffffffffffffffffffffff168152602001600073ffffffffffffffffffffffffffffffffffffffff168152602001600081526020016000815260200160008152602001600081526020016000815260200160006003811115613670577f4e487b7100000000000000000000000000000000000000000000000000000000600052602160045260246000fd5b81525090565b828054613682906147d9565b90600052602060002090601f0160209004810192826136a457600085556136eb565b82601f106136bd57805160ff19168380011785556136eb565b828001600101855582156136eb579182015b828111156136ea5782518255916020019190600101906136cf565b5b5090506136f891906136fc565b5090565b5b808211156137155760008160009055506001016136fd565b5090565b600061372c613727846144b1565b61448c565b90508281526020810184848401111561374457600080fd5b61374f848285614797565b509392505050565b600061376a613765846144e2565b61448c565b90508281526020810184848401111561378257600080fd5b61378d848285614797565b509392505050565b6000813590506137a481614f03565b92915050565b6000815190506137b981614f1a565b92915050565b600082601f8301126137d057600080fd5b81356137e0848260208601613719565b91505092915050565b600082601f8301126137fa57600080fd5b813561380a848260208601613757565b91505092915050565b60008135905061382281614f31565b92915050565b60006020828403121561383a57600080fd5b600061384884828501613795565b91505092915050565b6000806040838503121561386457600080fd5b600061387285828601613795565b925050602083013567ffffffffffffffff81111561388f57600080fd5b61389b858286016137bf565b9150509250929050565b6000806000606084860312156138ba57600080fd5b60006138c886828701613795565b935050602084013567ffffffffffffffff8111156138e557600080fd5b6138f1868287016137e9565b925050604061390286828701613813565b9150509250925092565b60006020828403121561391e57600080fd5b600061392c848285016137aa565b91505092915050565b60006020828403121561394757600080fd5b600061395584828501613813565b91505092915050565b6000806040838503121561397157600080fd5b600061397f85828601613813565b925050602061399085828601613813565b9150509250929050565b60006139a68383613e7a565b905092915050565b6139b78161473d565b82525050565b6139c6816146cb565b82525050565b6139d5816146b9565b82525050565b60006139e682614538565b6139f08185614566565b935083602082028501613a0285614513565b8060005b85811015613a3e5784840389528151613a1f858261399a565b9450613a2a83614559565b925060208a01995050600181019050613a06565b50829750879550505050505092915050565b613a59816146dd565b82525050565b613a68816146e9565b82525050565b6000613a7982614543565b613a838185614577565b9350613a938185602086016147a6565b80840191505092915050565b613aa88161474f565b82525050565b613ab78161474f565b82525050565b613ac681614761565b82525050565b6000613ad78261454e565b613ae18185614582565b9350613af18185602086016147a6565b613afa81614970565b840191505092915050565b6000613b108261454e565b613b1a8185614593565b9350613b2a8185602086016147a6565b613b3381614970565b840191505092915050565b60008154613b4b816147d9565b613b558186614593565b94506001821660008114613b705760018114613b8257613bb5565b60ff1983168652602086019350613bb5565b613b8b85614523565b60005b83811015613bad57815481890152600182019150602081019050613b8e565b808801955050505b50505092915050565b6000613bcb602683614593565b9150613bd682614981565b604082019050919050565b6000613bee602c83614593565b9150613bf9826149d0565b604082019050919050565b6000613c11602c83614593565b9150613c1c82614a1f565b604082019050919050565b6000613c34602c83614593565b9150613c3f82614a6e565b604082019050919050565b6000613c57603083614593565b9150613c6282614abd565b604082019050919050565b6000613c7a601583614593565b9150613c8582614b0c565b602082019050919050565b6000613c9d603883614593565b9150613ca882614b35565b604082019050919050565b6000613cc0602983614593565b9150613ccb82614b84565b604082019050919050565b6000613ce3602e83614593565b9150613cee82614bd3565b604082019050919050565b6000613d06602e83614593565b9150613d1182614c22565b604082019050919050565b6000613d29601883614593565b9150613d3482614c71565b602082019050919050565b6000613d4c602d83614593565b9150613d5782614c9a565b604082019050919050565b6000613d6f603583614593565b9150613d7a82614ce9565b604082019050919050565b6000613d92602083614593565b9150613d9d82614d38565b602082019050919050565b6000613db5603383614593565b9150613dc082614d61565b604082019050919050565b6000613dd8602983614593565b9150613de382614db0565b604082019050919050565b6000613dfb602683614593565b9150613e0682614dff565b604082019050919050565b6000613e1e601683614593565b9150613e2982614e4e565b602082019050919050565b6000613e41602b83614593565b9150613e4c82614e77565b604082019050919050565b6000613e64601f83614593565b9150613e6f82614ec6565b602082019050919050565b600061014083016000830151613e93600086018261402e565b5060208301518482036020860152613eab8282613acc565b9150506040830151613ec060408601826139bd565b506060830151613ed360608601826139bd565b506080830151613ee6608086018261402e565b5060a0830151613ef960a086018261402e565b5060c0830151613f0c60c086018261402e565b5060e0830151613f1f60e086018261402e565b50610100830151613f3461010086018261402e565b50610120830151613f49610120860182613a9f565b508091505092915050565b600061014083016000830151613f6d600086018261402e565b5060208301518482036020860152613f858282613acc565b9150506040830151613f9a60408601826139bd565b506060830151613fad60608601826139bd565b506080830151613fc0608086018261402e565b5060a0830151613fd360a086018261402e565b5060c0830151613fe660c086018261402e565b5060e0830151613ff960e086018261402e565b5061010083015161400e61010086018261402e565b50610120830151614023610120860182613a9f565b508091505092915050565b61403781614726565b82525050565b61404681614726565b82525050565b60006140588284613a6e565b915081905092915050565b600060208201905061407860008301846139cc565b92915050565b6000602082019050818103600083015261409881846139db565b905092915050565b600060808201905081810360008301526140ba81876139db565b90506140c9602083018661403d565b6140d66040830185613a50565b6140e3606083018461403d565b95945050505050565b60006020820190506141016000830184613a5f565b92915050565b600060208201905061411c6000830184613abd565b92915050565b6000602082019050818103600083015261413c8184613b05565b905092915050565b6000608082019050818103600083015261415e8187613b05565b905061416d60208301866139cc565b61417a60408301856139cc565b6141876060830184613aae565b95945050505050565b600060a08201905081810360008301526141aa8188613b3e565b90506141b960208301876139ae565b6141c660408301866139ae565b6141d3606083018561403d565b6141e0608083018461403d565b9695505050505050565b6000602082019050818103600083015261420381613bbe565b9050919050565b6000602082019050818103600083015261422381613be1565b9050919050565b6000602082019050818103600083015261424381613c04565b9050919050565b6000602082019050818103600083015261426381613c27565b9050919050565b6000602082019050818103600083015261428381613c4a565b9050919050565b600060208201905081810360008301526142a381613c6d565b9050919050565b600060208201905081810360008301526142c381613c90565b9050919050565b600060208201905081810360008301526142e381613cb3565b9050919050565b6000602082019050818103600083015261430381613cd6565b9050919050565b6000602082019050818103600083015261432381613cf9565b9050919050565b6000602082019050818103600083015261434381613d1c565b9050919050565b6000602082019050818103600083015261436381613d3f565b9050919050565b6000602082019050818103600083015261438381613d62565b9050919050565b600060208201905081810360008301526143a381613d85565b9050919050565b600060208201905081810360008301526143c381613da8565b9050919050565b600060208201905081810360008301526143e381613dcb565b9050919050565b6000602082019050818103600083015261440381613dee565b9050919050565b6000602082019050818103600083015261442381613e11565b9050919050565b6000602082019050818103600083015261444381613e34565b9050919050565b6000602082019050818103600083015261446381613e57565b9050919050565b600060208201905081810360008301526144848184613f54565b905092915050565b60006144966144a7565b90506144a2828261480b565b919050565b6000604051905090565b600067ffffffffffffffff8211156144cc576144cb614941565b5b6144d582614970565b9050602081019050919050565b600067ffffffffffffffff8211156144fd576144fc614941565b5b61450682614970565b9050602081019050919050565b6000819050602082019050919050565b60008190508160005260206000209050919050565b600081519050919050565b600081519050919050565b600081519050919050565b6000602082019050919050565b600082825260208201905092915050565b600081905092915050565b600082825260208201905092915050565b600082825260208201905092915050565b60006145af82614726565b91506145ba83614726565b9250827fffffffffffffffffffffffffffffffffffffffffffffffffffffffffffffffff038211156145ef576145ee614885565b5b828201905092915050565b600061460582614726565b915061461083614726565b9250826146205761461f6148b4565b5b828204905092915050565b600061463682614726565b915061464183614726565b9250817fffffffffffffffffffffffffffffffffffffffffffffffffffffffffffffffff048311821515161561467a57614679614885565b5b828202905092915050565b600061469082614726565b915061469b83614726565b9250828210156146ae576146ad614885565b5b828203905092915050565b60006146c482614706565b9050919050565b60006146d682614706565b9050919050565b60008115159050919050565b6000819050919050565b600081905061470182614eef565b919050565b600073ffffffffffffffffffffffffffffffffffffffff82169050919050565b6000819050919050565b600060ff82169050919050565b600061474882614773565b9050919050565b600061475a826146f3565b9050919050565b600061476c82614730565b9050919050565b600061477e82614785565b9050919050565b600061479082614706565b9050919050565b82818337600083830152505050565b60005b838110156147c45780820151818401526020810190506147a9565b838111156147d3576000848401525b50505050565b600060028204905060018216806147f157607f821691505b6020821081141561480557614804614912565b5b50919050565b61481482614970565b810181811067ffffffffffffffff8211171561483357614832614941565b5b80604052505050565b600061484782614726565b91507fffffffffffffffffffffffffffffffffffffffffffffffffffffffffffffffff82141561487a57614879614885565b5b600182019050919050565b7f4e487b7100000000000000000000000000000000000000000000000000000000600052601160045260246000fd5b7f4e487b7100000000000000000000000000000000000000000000000000000000600052601260045260246000fd5b7f4e487b7100000000000000000000000000000000000000000000000000000000600052602160045260246000fd5b7f4e487b7100000000000000000000000000000000000000000000000000000000600052602260045260246000fd5b7f4e487b7100000000000000000000000000000000000000000000000000000000600052604160045260246000fd5b6000601f19601f8301169050919050565b7f4f776e61626c653a206e6577206f776e657220697320746865207a65726f206160008201527f6464726573730000000000000000000000000000000000000000000000000000602082015250565b7f46756e6374696f6e206d7573742062652063616c6c6564207468726f7567682060008201527f64656c656761746563616c6c0000000000000000000000000000000000000000602082015250565b7f46756e6374696f6e206d7573742062652063616c6c6564207468726f7567682060008201527f6163746976652070726f78790000000000000000000000000000000000000000602082015250565b7f4f6e6c792073656c6c6572206f72204f776e65722063616e20706572666f726d60008201527f207468697320616374696f6e0000000000000000000000000000000000000000602082015250565b7f43616e277420726566756e64207468697320657363726f772e20416c7265616460008201527f792075706461746564206265666f726500000000000000000000000000000000602082015250565b7f4f6e6c792042757965722043616e204163636573730000000000000000000000600082015250565b7f555550535570677261646561626c653a206d757374206e6f742062652063616c60008201527f6c6564207468726f7567682064656c656761746563616c6c0000000000000000602082015250565b7f45524331393637557067726164653a20756e737570706f727465642070726f7860008201527f6961626c65555549440000000000000000000000000000000000000000000000602082015250565b7f496e697469616c697a61626c653a20636f6e747261637420697320616c72656160008201527f647920696e697469616c697a6564000000000000000000000000000000000000602082015250565b7f45524331393637557067726164653a206e657720696d706c656d656e7461746960008201527f6f6e206973206e6f742055555053000000000000000000000000000000000000602082015250565b7f457363726f772069736e27742065787069726564207965740000000000000000600082015250565b7f455243313936373a206e657720696d706c656d656e746174696f6e206973206e60008201527f6f74206120636f6e747261637400000000000000000000000000000000000000602082015250565b7f596f752063616e27742064656c69766572207468697320657363726f772e204160008201527f6c72656164792075706461746564206265666f72650000000000000000000000602082015250565b7f4f776e61626c653a2063616c6c6572206973206e6f7420746865206f776e6572600082015250565b7f596f752063616e277420636c61696d207468697320657363726f772e20416c7260008201527f656164792075706461746564206265666f726500000000000000000000000000602082015250565b7f457363726f77206d757374206265206c6172676572207468656e206d696e696d60008201527f756d20616d6f756e740000000000000000000000000000000000000000000000602082015250565b7f416464726573733a2064656c65676174652063616c6c20746f206e6f6e2d636f60008201527f6e74726163740000000000000000000000000000000000000000000000000000602082015250565b7f4f6e6c792053656c6c65722043616e2041636365737300000000000000000000600082015250565b7f496e697469616c697a61626c653a20636f6e7472616374206973206e6f74206960008201527f6e697469616c697a696e67000000000000000000000000000000000000000000602082015250565b7f5265656e7472616e637947756172643a207265656e7472616e742063616c6c00600082015250565b60048110614f0057614eff6148e3565b5b50565b614f0c816146b9565b8114614f1757600080fd5b50565b614f23816146e9565b8114614f2e57600080fd5b50565b614f3a81614726565b8114614f4557600080fd5b5056fe416464726573733a206c6f772d6c6576656c2064656c65676174652063616c6c206661696c6564a26469706673582212207a3f8ebd5fb7264d69bf4f4adba7eee442ba2dc5b8fa7842a1ebe1755a3dddf064736f6c63430008040033",
  "linkReferences": {},
  "deployedLinkReferences": {}
}